{
  "_format": "hh-sol-artifact-1",
  "contractName": "EvermarkVoting",
  "sourceName": "contracts/EvermarkVoting.sol",
  "abi": [
    {
      "inputs": [
        {
          "internalType": "address",
          "name": "_wemark",
          "type": "address"
        },
        {
          "internalType": "address",
          "name": "_evermarkNFT",
          "type": "address"
        }
      ],
      "stateMutability": "nonpayable",
      "type": "constructor"
    },
    {
      "anonymous": false,
      "inputs": [
        {
          "indexed": true,
          "internalType": "address",
          "name": "previousOwner",
          "type": "address"
        },
        {
          "indexed": true,
          "internalType": "address",
          "name": "newOwner",
          "type": "address"
        }
      ],
      "name": "OwnershipTransferred",
      "type": "event"
    },
    {
      "anonymous": false,
      "inputs": [
        {
          "indexed": true,
          "internalType": "uint256",
          "name": "season",
          "type": "uint256"
        },
        {
          "indexed": false,
          "internalType": "uint256",
          "name": "endTime",
          "type": "uint256"
        }
      ],
      "name": "SeasonEnded",
      "type": "event"
    },
    {
      "anonymous": false,
      "inputs": [
        {
          "indexed": true,
          "internalType": "uint256",
          "name": "season",
          "type": "uint256"
        },
        {
          "indexed": false,
          "internalType": "uint256",
          "name": "startTime",
          "type": "uint256"
        },
        {
          "indexed": false,
          "internalType": "uint256",
          "name": "endTime",
          "type": "uint256"
        }
      ],
      "name": "SeasonStarted",
      "type": "event"
    },
    {
      "anonymous": false,
      "inputs": [
        {
          "indexed": true,
          "internalType": "address",
          "name": "voter",
          "type": "address"
        },
        {
          "indexed": true,
          "internalType": "uint256",
          "name": "season",
          "type": "uint256"
        },
        {
          "indexed": true,
          "internalType": "uint256",
          "name": "evermarkId",
          "type": "uint256"
        },
        {
          "indexed": false,
          "internalType": "uint256",
          "name": "votes",
          "type": "uint256"
        }
      ],
      "name": "VoteCast",
      "type": "event"
    },
    {
      "inputs": [],
      "name": "SEASON_DURATION",
      "outputs": [
        {
          "internalType": "uint256",
          "name": "",
          "type": "uint256"
        }
      ],
      "stateMutability": "view",
      "type": "function"
    },
    {
      "inputs": [],
      "name": "currentSeason",
      "outputs": [
        {
          "internalType": "uint256",
          "name": "",
          "type": "uint256"
        }
      ],
      "stateMutability": "view",
      "type": "function"
    },
    {
      "inputs": [
        {
          "internalType": "address",
          "name": "token",
          "type": "address"
        },
        {
          "internalType": "address",
          "name": "to",
          "type": "address"
        },
        {
          "internalType": "uint256",
          "name": "amount",
          "type": "uint256"
        }
      ],
      "name": "emergencyWithdraw",
      "outputs": [],
      "stateMutability": "nonpayable",
      "type": "function"
    },
    {
      "inputs": [],
      "name": "endCurrentSeason",
      "outputs": [],
      "stateMutability": "nonpayable",
      "type": "function"
    },
    {
      "inputs": [],
      "name": "evermarkNFT",
      "outputs": [
        {
          "internalType": "contract IEvermarkNFT",
          "name": "",
          "type": "address"
        }
      ],
      "stateMutability": "view",
      "type": "function"
    },
    {
      "inputs": [
        {
          "internalType": "uint256",
          "name": "",
          "type": "uint256"
        },
        {
          "internalType": "uint256",
          "name": "",
          "type": "uint256"
        }
      ],
      "name": "evermarkVotes",
      "outputs": [
        {
          "internalType": "uint256",
          "name": "",
          "type": "uint256"
        }
      ],
      "stateMutability": "view",
      "type": "function"
    },
    {
      "inputs": [],
      "name": "getCurrentSeason",
      "outputs": [
        {
          "internalType": "uint256",
          "name": "",
          "type": "uint256"
        }
      ],
      "stateMutability": "view",
      "type": "function"
    },
    {
      "inputs": [
        {
          "internalType": "uint256",
          "name": "season",
          "type": "uint256"
        },
        {
          "internalType": "uint256",
          "name": "evermarkId",
          "type": "uint256"
        }
      ],
      "name": "getEvermarkVotesInSeason",
      "outputs": [
        {
          "internalType": "uint256",
          "name": "",
          "type": "uint256"
        }
      ],
      "stateMutability": "view",
      "type": "function"
    },
    {
      "inputs": [
        {
          "internalType": "address",
          "name": "user",
          "type": "address"
        }
      ],
      "name": "getRemainingVotingPower",
      "outputs": [
        {
          "internalType": "uint256",
          "name": "",
          "type": "uint256"
        }
      ],
      "stateMutability": "view",
      "type": "function"
    },
    {
      "inputs": [
        {
          "internalType": "uint256",
          "name": "season",
          "type": "uint256"
        }
      ],
      "name": "getSeasonInfo",
      "outputs": [
        {
          "internalType": "uint256",
          "name": "startTime",
          "type": "uint256"
        },
        {
          "internalType": "uint256",
          "name": "endTime",
          "type": "uint256"
        },
        {
          "internalType": "bool",
          "name": "active",
          "type": "bool"
        },
        {
          "internalType": "uint256",
          "name": "totalVotes",
          "type": "uint256"
        }
      ],
      "stateMutability": "view",
      "type": "function"
    },
    {
      "inputs": [
        {
          "internalType": "uint256",
          "name": "season",
          "type": "uint256"
        },
        {
          "internalType": "address",
          "name": "user",
          "type": "address"
        }
      ],
      "name": "getUserVotesInSeason",
      "outputs": [
        {
          "internalType": "uint256",
          "name": "",
          "type": "uint256"
        }
      ],
      "stateMutability": "view",
      "type": "function"
    },
    {
      "inputs": [
        {
          "internalType": "uint256",
          "name": "season",
          "type": "uint256"
        }
      ],
      "name": "isSeasonActive",
      "outputs": [
        {
          "internalType": "bool",
          "name": "",
          "type": "bool"
        }
      ],
      "stateMutability": "view",
      "type": "function"
    },
    {
      "inputs": [],
      "name": "owner",
      "outputs": [
        {
          "internalType": "address",
          "name": "",
          "type": "address"
        }
      ],
      "stateMutability": "view",
      "type": "function"
    },
    {
      "inputs": [],
      "name": "renounceOwnership",
      "outputs": [],
      "stateMutability": "nonpayable",
      "type": "function"
    },
    {
      "inputs": [
        {
          "internalType": "uint256",
          "name": "",
          "type": "uint256"
        }
      ],
      "name": "seasons",
      "outputs": [
        {
          "internalType": "uint256",
          "name": "startTime",
          "type": "uint256"
        },
        {
          "internalType": "uint256",
          "name": "endTime",
          "type": "uint256"
        },
        {
          "internalType": "bool",
          "name": "active",
          "type": "bool"
        },
        {
          "internalType": "uint256",
          "name": "totalVotes",
          "type": "uint256"
        }
      ],
      "stateMutability": "view",
      "type": "function"
    },
    {
      "inputs": [],
      "name": "startNewSeason",
      "outputs": [],
      "stateMutability": "nonpayable",
      "type": "function"
    },
    {
      "inputs": [
        {
          "internalType": "address",
          "name": "newOwner",
          "type": "address"
        }
      ],
      "name": "transferOwnership",
      "outputs": [],
      "stateMutability": "nonpayable",
      "type": "function"
    },
    {
      "inputs": [
        {
          "internalType": "address",
          "name": "_wemark",
          "type": "address"
        },
        {
          "internalType": "address",
          "name": "_evermarkNFT",
          "type": "address"
        }
      ],
      "name": "updateContracts",
      "outputs": [],
      "stateMutability": "nonpayable",
      "type": "function"
    },
    {
      "inputs": [
        {
          "internalType": "uint256",
          "name": "",
          "type": "uint256"
        },
        {
          "internalType": "address",
          "name": "",
          "type": "address"
        }
      ],
      "name": "userVotesInSeason",
      "outputs": [
        {
          "internalType": "uint256",
          "name": "",
          "type": "uint256"
        }
      ],
      "stateMutability": "view",
      "type": "function"
    },
    {
      "inputs": [
        {
          "internalType": "uint256",
          "name": "evermarkId",
          "type": "uint256"
        },
        {
          "internalType": "uint256",
          "name": "votes",
          "type": "uint256"
        }
      ],
      "name": "voteForEvermark",
      "outputs": [],
      "stateMutability": "nonpayable",
      "type": "function"
    },
    {
      "inputs": [],
      "name": "wemark",
      "outputs": [
        {
          "internalType": "contract IWEMARK",
          "name": "",
          "type": "address"
        }
      ],
      "stateMutability": "view",
      "type": "function"
    }
  ],
  "bytecode": "0x608060405234801561001057600080fd5b5060405161127938038061127983398101604081905261002f9161018f565b61003833610123565b600180556001600160a01b0382166100975760405162461bcd60e51b815260206004820152601660248201527f496e76616c69642057454d41524b20616464726573730000000000000000000060448201526064015b60405180910390fd5b6001600160a01b0381166100ed5760405162461bcd60e51b815260206004820152601b60248201527f496e76616c696420457665726d61726b4e465420616464726573730000000000604482015260640161008e565b600280546001600160a01b039384166001600160a01b0319918216179091556003805492909316911617905560006004556101c2565b600080546001600160a01b038381166001600160a01b0319831681178455604051919092169283917f8be0079c531659141344cd1fd0a4f28419497f9722a3daafe3b4186f6b6457e09190a35050565b80516001600160a01b038116811461018a57600080fd5b919050565b600080604083850312156101a257600080fd5b6101ab83610173565b91506101b960208401610173565b90509250929050565b6110a8806101d16000396000f3fe608060405234801561001057600080fd5b50600436106101375760003560e01c8063bcb39621116100b8578063e63ea4081161007c578063e63ea40814610330578063e692c49f14610343578063ea4263a614610356578063f2fde38b14610369578063f5d709a11461037c578063f8d20575146103b757600080fd5b8063bcb39621146102b4578063c3a5a6d3146102bd578063d3b30b75146102e8578063dc185e35146102f0578063dc2e3fc4146102fa57600080fd5b8063715018a6116100ff578063715018a61461025e5780638da5cb5b146102685780639534309114610279578063a1a42e6514610281578063b6ceb61f146102ac57600080fd5b80631a200fec1461013c5780631bae2b6c1461017a5780632e4f32a5146101fd57806351aea6ad146102105780636044f7e21461023b575b600080fd5b61016761014a366004610ea7565b600660209081526000928352604080842090915290825290205481565b6040519081526020015b60405180910390f35b6101d7610188366004610ec9565b600090815260056020908152604091829020825160808101845281548082526001830154938201849052600283015460ff16151594820185905260039092015460609091018190529093919291565b604080519485526020850193909352901515918301919091526060820152608001610171565b61016761020b366004610efe565b6103ca565b600254610223906001600160a01b031681565b6040516001600160a01b039091168152602001610171565b61024e610249366004610ec9565b610496565b6040519015158152602001610171565b6102666104ce565b005b6000546001600160a01b0316610223565b6102666104e2565b61016761028f366004610ea7565b600091825260066020908152604080842092845291905290205490565b6102666105fd565b61016760045481565b6101676102cb366004610f20565b600760209081526000928352604080842090915290825290205481565b600454610167565b61016762093a8081565b610167610308366004610f20565b60009182526007602090815260408084206001600160a01b0393909316845291905290205490565b61026661033e366004610f4c565b61076d565b610266610351366004610f89565b61089d565b610266610364366004610ea7565b610978565b610266610377366004610efe565b610d2b565b6101d761038a366004610ec9565b60056020526000908152604090208054600182015460028301546003909301549192909160ff9091169084565b600354610223906001600160a01b031681565b60006004546000036103de57506000919050565b600254604051635da6a21b60e11b81526001600160a01b038481166004830152600092169063bb4d443690602401602060405180830381865afa158015610429573d6000803e3d6000fd5b505050506040513d601f19601f8201168201806040525081019061044d9190610fb3565b60045460009081526007602090815260408083206001600160a01b038816845290915290205490915080821161048457600061048e565b61048e8183610fe2565b949350505050565b60008181526005602052604081206002015460ff1680156104c857506000828152600560205260409020600101544211155b92915050565b6104d6610da4565b6104e06000610dfe565b565b6104ea610da4565b6000600454116105345760405162461bcd60e51b815260206004820152601060248201526f139bc81cd9585cdbdb881d1bc8195b9960821b60448201526064015b60405180910390fd5b60045460009081526005602052604090206002015460ff1661058f5760405162461bcd60e51b815260206004820152601460248201527314d9585cdbdb88185b1c9958591e48195b99195960621b604482015260640161052b565b60048054600090815260056020526040808220600201805460ff191690558254825290819020426001919091018190559154905190917fd84108459ae28f4111f3c851dee576040e08f18d76d1dc82f0094abe275b1152916105f391815260200190565b60405180910390a2565b610605610da4565b600060045411801561062b575060045460009081526005602052604090206002015460ff165b1561069d5760048054600090815260056020526040808220600201805460ff191690558254825290819020426001919091018190559154905190917fd84108459ae28f4111f3c851dee576040e08f18d76d1dc82f0094abe275b11529161069491815260200190565b60405180910390a25b600480549060006106ad83610ff5565b9190505550604051806080016040528042815260200162093a80426106d2919061100e565b8152600160208083018290526000604093840181905260048054825260058352908490208551815591850151928201929092559183015160028301805460ff1916911515919091179055606090920151600390910155547f140b0d71aeb7929ef4342c1cf14dc9b6c83b015cf00b0442ff0d4f916abdd2954261075862093a808261100e565b604080519283526020830191909152016105f3565b610775610da4565b6001600160a01b0383166107bf576040516001600160a01b0383169082156108fc029083906000818181858888f193505050501580156107b9573d6000803e3d6000fd5b50505050565b6040516001600160a01b038381166024830152604482018390526000919085169060640160408051601f198184030181529181526020820180516001600160e01b031663a9059cbb60e01b179052516108189190611021565b6000604051808303816000865af19150503d8060008114610855576040519150601f19603f3d011682016040523d82523d6000602084013e61085a565b606091505b50509050806107b95760405162461bcd60e51b815260206004820152600f60248201526e151c985b9cd9995c8819985a5b1959608a1b604482015260640161052b565b6108a5610da4565b6001600160a01b0382166108f45760405162461bcd60e51b8152602060048201526016602482015275496e76616c69642057454d41524b206164647265737360501b604482015260640161052b565b6001600160a01b03811661094a5760405162461bcd60e51b815260206004820152601b60248201527f496e76616c696420457665726d61726b4e465420616464726573730000000000604482015260640161052b565b600280546001600160a01b039384166001600160a01b03199182161790915560038054929093169116179055565b610980610e4e565b6000600454116109c55760405162461bcd60e51b815260206004820152601060248201526f27379030b1ba34bb329039b2b0b9b7b760811b604482015260640161052b565b60045460009081526005602052604090206002015460ff16610a1d5760405162461bcd60e51b8152602060048201526011602482015270536561736f6e206e6f742061637469766560781b604482015260640161052b565b600454600090815260056020526040902060010154421115610a705760405162461bcd60e51b815260206004820152600c60248201526b14d9585cdbdb88195b99195960a21b604482015260640161052b565b600354604051634f558e7960e01b8152600481018490526001600160a01b0390911690634f558e7990602401602060405180830381865afa158015610ab9573d6000803e3d6000fd5b505050506040513d601f19601f82011682018060405250810190610add9190611050565b610b295760405162461bcd60e51b815260206004820152601760248201527f457665726d61726b20646f6573206e6f74206578697374000000000000000000604482015260640161052b565b60008111610b705760405162461bcd60e51b81526020600482015260146024820152734d75737420766f7465206174206c65617374203160601b604482015260640161052b565b600254604051635da6a21b60e11b81523360048201526000916001600160a01b03169063bb4d443690602401602060405180830381865afa158015610bb9573d6000803e3d6000fd5b505050506040513d601f19601f82011682018060405250810190610bdd9190610fb3565b600454600090815260076020908152604080832033845290915290205490915081610c08848361100e565b1115610c565760405162461bcd60e51b815260206004820152601960248201527f496e73756666696369656e7420766f74696e6720706f77657200000000000000604482015260640161052b565b600454600090815260066020908152604080832087845290915281208054859290610c8290849061100e565b9091555050600454600090815260076020908152604080832033845290915281208054859290610cb390849061100e565b909155505060045460009081526005602052604081206003018054859290610cdc90849061100e565b909155505060045460405184815285919033907fa23fc440c6fc2e19ce408adc0b47622097fa7ea64409d71d33ba3fcdb5b4cd959060200160405180910390a45050610d2760018055565b5050565b610d33610da4565b6001600160a01b038116610d985760405162461bcd60e51b815260206004820152602660248201527f4f776e61626c653a206e6577206f776e657220697320746865207a65726f206160448201526564647265737360d01b606482015260840161052b565b610da181610dfe565b50565b6000546001600160a01b031633146104e05760405162461bcd60e51b815260206004820181905260248201527f4f776e61626c653a2063616c6c6572206973206e6f7420746865206f776e6572604482015260640161052b565b600080546001600160a01b038381166001600160a01b0319831681178455604051919092169283917f8be0079c531659141344cd1fd0a4f28419497f9722a3daafe3b4186f6b6457e09190a35050565b600260015403610ea05760405162461bcd60e51b815260206004820152601f60248201527f5265656e7472616e637947756172643a207265656e7472616e742063616c6c00604482015260640161052b565b6002600155565b60008060408385031215610eba57600080fd5b50508035926020909101359150565b600060208284031215610edb57600080fd5b5035919050565b80356001600160a01b0381168114610ef957600080fd5b919050565b600060208284031215610f1057600080fd5b610f1982610ee2565b9392505050565b60008060408385031215610f3357600080fd5b82359150610f4360208401610ee2565b90509250929050565b600080600060608486031215610f6157600080fd5b610f6a84610ee2565b9250610f7860208501610ee2565b929592945050506040919091013590565b60008060408385031215610f9c57600080fd5b610fa583610ee2565b9150610f4360208401610ee2565b600060208284031215610fc557600080fd5b5051919050565b634e487b7160e01b600052601160045260246000fd5b818103818111156104c8576104c8610fcc565b60006001820161100757611007610fcc565b5060010190565b808201808211156104c8576104c8610fcc565b6000825160005b818110156110425760208186018101518583015201611028565b506000920191825250919050565b60006020828403121561106257600080fd5b81518015158114610f1957600080fdfea2646970667358221220eca5e2b604fc3c31ae9358632a69beeb6f32c97a5a484c395f04c62a3c1bee6c64736f6c634300081e0033",
  "linkReferences": {},
  "deployedLinkReferences": {}
}